{"abi":[{"type":"constructor","inputs":[{"name":"_swapRouter","type":"address","internalType":"address"},{"name":"_feePercent","type":"uint256","internalType":"uint256"}],"stateMutability":"nonpayable"},{"type":"receive","stateMutability":"payable"},{"type":"function","name":"WETH","inputs":[],"outputs":[{"name":"","type":"address","internalType":"address"}],"stateMutability":"view"},{"type":"function","name":"admins","inputs":[{"name":"","type":"address","internalType":"address"}],"outputs":[{"name":"","type":"bool","internalType":"bool"}],"stateMutability":"view"},{"type":"function","name":"cancelPlan","inputs":[{"name":"_planId","type":"uint256","internalType":"uint256"}],"outputs":[],"stateMutability":"nonpayable"},{"type":"function","name":"checkApproval","inputs":[{"name":"_token","type":"address","internalType":"address"},{"name":"_owner","type":"address","internalType":"address"}],"outputs":[{"name":"","type":"uint256","internalType":"uint256"}],"stateMutability":"view"},{"type":"function","name":"createPlan","inputs":[{"name":"_tokenIn","type":"address","internalType":"address"},{"name":"_tokenOut","type":"address","internalType":"address"},{"name":"_recipient","type":"address","internalType":"address"},{"name":"_duration","type":"uint256","internalType":"uint256"}],"outputs":[],"stateMutability":"nonpayable"},{"type":"function","name":"executeDCAPlan","inputs":[{"name":"_user","type":"address","internalType":"address"},{"name":"_planId","type":"uint256","internalType":"uint256"},{"name":"_amountIn","type":"uint256","internalType":"uint256"},{"name":"_poolFee","type":"uint24","internalType":"uint24"}],"outputs":[{"name":"amountOut","type":"uint256","internalType":"uint256"}],"stateMutability":"nonpayable"},{"type":"function","name":"feePercent","inputs":[],"outputs":[{"name":"","type":"uint256","internalType":"uint256"}],"stateMutability":"view"},{"type":"function","name":"getAllUserPlans","inputs":[{"name":"_user","type":"address","internalType":"address"}],"outputs":[{"name":"","type":"tuple[]","internalType":"struct IDCAExecutor.DCAPlan[]","components":[{"name":"tokenIn","type":"address","internalType":"address"},{"name":"tokenOut","type":"address","internalType":"address"},{"name":"recipient","type":"address","internalType":"address"},{"name":"lastExecution","type":"uint256","internalType":"uint256"},{"name":"duration","type":"uint256","internalType":"uint256"},{"name":"active","type":"bool","internalType":"bool"}]}],"stateMutability":"view"},{"type":"function","name":"owner","inputs":[],"outputs":[{"name":"","type":"address","internalType":"address"}],"stateMutability":"view"},{"type":"function","name":"renounceOwnership","inputs":[],"outputs":[],"stateMutability":"nonpayable"},{"type":"function","name":"setAdmin","inputs":[{"name":"_newAdmin","type":"address","internalType":"address"},{"name":"_isAdmin","type":"bool","internalType":"bool"}],"outputs":[],"stateMutability":"nonpayable"},{"type":"function","name":"swapRouter","inputs":[],"outputs":[{"name":"","type":"address","internalType":"address"}],"stateMutability":"view"},{"type":"function","name":"transferOwnership","inputs":[{"name":"newOwner","type":"address","internalType":"address"}],"outputs":[],"stateMutability":"nonpayable"},{"type":"function","name":"updateFeePercent","inputs":[{"name":"_newFeePercent","type":"uint256","internalType":"uint256"}],"outputs":[],"stateMutability":"nonpayable"},{"type":"function","name":"updatePlan","inputs":[{"name":"_planId","type":"uint256","internalType":"uint256"},{"name":"_recipient","type":"address","internalType":"address"},{"name":"_duration","type":"uint256","internalType":"uint256"}],"outputs":[],"stateMutability":"nonpayable"},{"type":"function","name":"updateRouter","inputs":[{"name":"_swapRouter","type":"address","internalType":"address"}],"outputs":[],"stateMutability":"nonpayable"},{"type":"function","name":"userPlanCount","inputs":[{"name":"","type":"address","internalType":"address"}],"outputs":[{"name":"","type":"uint256","internalType":"uint256"}],"stateMutability":"view"},{"type":"function","name":"userPlans","inputs":[{"name":"","type":"address","internalType":"address"},{"name":"","type":"uint256","internalType":"uint256"}],"outputs":[{"name":"tokenIn","type":"address","internalType":"address"},{"name":"tokenOut","type":"address","internalType":"address"},{"name":"recipient","type":"address","internalType":"address"},{"name":"lastExecution","type":"uint256","internalType":"uint256"},{"name":"duration","type":"uint256","internalType":"uint256"},{"name":"active","type":"bool","internalType":"bool"}],"stateMutability":"view"},{"type":"function","name":"withdrawETH","inputs":[{"name":"_to","type":"address","internalType":"address"},{"name":"_amount","type":"uint256","internalType":"uint256"}],"outputs":[],"stateMutability":"nonpayable"},{"type":"function","name":"withdrawFees","inputs":[{"name":"_token","type":"address","internalType":"address"},{"name":"_to","type":"address","internalType":"address"},{"name":"_amount","type":"uint256","internalType":"uint256"}],"outputs":[],"stateMutability":"nonpayable"},{"type":"event","name":"AdminUpdated","inputs":[{"name":"newAdmin","type":"address","indexed":true,"internalType":"address"}],"anonymous":false},{"type":"event","name":"DCAExecuted","inputs":[{"name":"tokenIn","type":"address","indexed":true,"internalType":"address"},{"name":"tokenOut","type":"address","indexed":true,"internalType":"address"},{"name":"amountIn","type":"uint256","indexed":false,"internalType":"uint256"},{"name":"amountOut","type":"uint256","indexed":false,"internalType":"uint256"},{"name":"poolFee","type":"uint24","indexed":false,"internalType":"uint24"},{"name":"timestamp","type":"uint256","indexed":false,"internalType":"uint256"}],"anonymous":false},{"type":"event","name":"DCAPlanExecuted","inputs":[{"name":"user","type":"address","indexed":true,"internalType":"address"},{"name":"planId","type":"uint256","indexed":true,"internalType":"uint256"},{"name":"tokenIn","type":"address","indexed":true,"internalType":"address"},{"name":"tokenOut","type":"address","indexed":false,"internalType":"address"},{"name":"amountIn","type":"uint256","indexed":false,"internalType":"uint256"},{"name":"amountOut","type":"uint256","indexed":false,"internalType":"uint256"},{"name":"feeAmount","type":"uint256","indexed":false,"internalType":"uint256"}],"anonymous":false},{"type":"event","name":"FeePercentUpdated","inputs":[{"name":"oldFeePercent","type":"uint256","indexed":false,"internalType":"uint256"},{"name":"newFeePercent","type":"uint256","indexed":false,"internalType":"uint256"}],"anonymous":false},{"type":"event","name":"FeeWithdrawn","inputs":[{"name":"token","type":"address","indexed":true,"internalType":"address"},{"name":"to","type":"address","indexed":true,"internalType":"address"},{"name":"amount","type":"uint256","indexed":false,"internalType":"uint256"}],"anonymous":false},{"type":"event","name":"OwnershipTransferred","inputs":[{"name":"previousOwner","type":"address","indexed":true,"internalType":"address"},{"name":"newOwner","type":"address","indexed":true,"internalType":"address"}],"anonymous":false},{"type":"event","name":"PlanCancelled","inputs":[{"name":"user","type":"address","indexed":true,"internalType":"address"},{"name":"planId","type":"uint256","indexed":true,"internalType":"uint256"}],"anonymous":false},{"type":"event","name":"PlanCreated","inputs":[{"name":"user","type":"address","indexed":true,"internalType":"address"},{"name":"planId","type":"uint256","indexed":true,"internalType":"uint256"},{"name":"tokenIn","type":"address","indexed":true,"internalType":"address"},{"name":"tokenOut","type":"address","indexed":false,"internalType":"address"},{"name":"recipient","type":"address","indexed":false,"internalType":"address"},{"name":"duration","type":"uint256","indexed":false,"internalType":"uint256"}],"anonymous":false},{"type":"event","name":"PlanUpdated","inputs":[{"name":"user","type":"address","indexed":true,"internalType":"address"},{"name":"planId","type":"uint256","indexed":true,"internalType":"uint256"},{"name":"recipient","type":"address","indexed":false,"internalType":"address"},{"name":"duration","type":"uint256","indexed":false,"internalType":"uint256"}],"anonymous":false},{"type":"error","name":"OwnableInvalidOwner","inputs":[{"name":"owner","type":"address","internalType":"address"}]},{"type":"error","name":"OwnableUnauthorizedAccount","inputs":[{"name":"account","type":"address","internalType":"address"}]},{"type":"error","name":"ReentrancyGuardReentrantCall","inputs":[]}],"bytecode":{"object":"0x608060405234801561001057600080fd5b50604051611b4c380380611b4c83398101604081905261002f91610133565b338061005657604051631e4fbdf760e01b8152600060048201526024015b60405180910390fd5b61005f816100e3565b5060018055600280546001600160a01b0319166001600160a01b0384161790556103e88111156100c05760405162461bcd60e51b815260206004820152600c60248201526b08ccaca40e8dede40d0d2ced60a31b604482015260640161004d565b60035550336000908152600460205260409020805460ff1916600117905561016d565b600080546001600160a01b038381166001600160a01b0319831681178455604051919092169283917f8be0079c531659141344cd1fd0a4f28419497f9722a3daafe3b4186f6b6457e09190a35050565b6000806040838503121561014657600080fd5b82516001600160a01b038116811461015d57600080fd5b6020939093015192949293505050565b6119d08061017c6000396000f3fe6080604052600436106101235760003560e01c8063831820f0116100a0578063c851cc3211610064578063c851cc32146103e6578063e55dc4e614610406578063f05c5fed14610426578063f2fde38b14610446578063f34acc051461046657600080fd5b8063831820f0146102ee5780638da5cb5b1461034c578063ab501c6c1461037e578063ad5c4648146103ab578063c31c9c07146103c657600080fd5b80635235ca75116100e75780635235ca75146102635780635cda4b4114610283578063715018a6146102a35780637fd6f15c146102b857806380d6664c146102ce57600080fd5b806312f4d31414610183578063322d3410146101c3578063429b62e5146101e35780634782f779146102235780634b0bddd21461024357600080fd5b3661017e57336006602160991b011461017c5760405162461bcd60e51b815260206004820152601660248201527509edcd8f240ae8aa89040c6c2dc40e6cadcc8408aa8960531b60448201526064015b60405180910390fd5b005b600080fd5b34801561018f57600080fd5b506101b061019e3660046115ed565b60066020526000908152604090205481565b6040519081526020015b60405180910390f35b3480156101cf57600080fd5b506101b06101de36600461160f565b610486565b3480156101ef57600080fd5b506102136101fe3660046115ed565b60046020526000908152604090205460ff1681565b60405190151581526020016101ba565b34801561022f57600080fd5b5061017c61023e36600461165f565b6109c9565b34801561024f57600080fd5b5061017c61025e366004611697565b610ae7565b34801561026f57600080fd5b5061017c61027e3660046116ce565b610b8b565b34801561028f57600080fd5b506101b061029e366004611704565b610d09565b3480156102af57600080fd5b5061017c610d88565b3480156102c457600080fd5b506101b060035481565b3480156102da57600080fd5b5061017c6102e9366004611737565b610d9c565b3480156102fa57600080fd5b5061030e61030936600461165f565b610e80565b604080516001600160a01b039788168152958716602087015293909516928401929092526060830152608082015290151560a082015260c0016101ba565b34801561035857600080fd5b506000546001600160a01b03165b6040516001600160a01b0390911681526020016101ba565b34801561038a57600080fd5b5061039e6103993660046115ed565b610ee4565b6040516101ba9190611750565b3480156103b757600080fd5b506103666006602160991b0181565b3480156103d257600080fd5b50600254610366906001600160a01b031681565b3480156103f257600080fd5b5061017c6104013660046115ed565b61104a565b34801561041257600080fd5b5061017c6104213660046117df565b611074565b34801561043257600080fd5b5061017c610441366004611737565b61124e565b34801561045257600080fd5b5061017c6104613660046115ed565b6112dc565b34801561047257600080fd5b5061017c61048136600461180b565b61131a565b3360009081526004602052604081205460ff166104d65760405162461bcd60e51b815260206004820152600e60248201526d139bdd08185d5d1a1bdc9a5e995960921b6044820152606401610173565b6104de61152a565b6001600160a01b03851660009081526006602052604090205484106105155760405162461bcd60e51b815260040161017390611856565b6001600160a01b038516600090815260056020526040812080548690811061053f5761053f61187f565b60009182526020909120600690910201600581015490915060ff166105965760405162461bcd60e51b815260206004820152600d60248201526c506c616e20696e61637469766560981b6044820152606401610173565b806004015481600301546105aa91906118ab565b4210156105e35760405162461bcd60e51b8152602060048201526007602482015266139bdd081e595d60ca1b6044820152606401610173565b6000612710600354866105f691906118be565b61060091906118d5565b9050600061060e82876118f7565b83546040516323b872dd60e01b81526001600160a01b038b81166004830152306024830152604482018a90529293509116906323b872dd906064016020604051808303816000875af1158015610668573d6000803e3d6000fd5b505050506040513d601f19601f8201168201806040525081019061068c919061190a565b50825460025460405163095ea7b360e01b81526001600160a01b0391821660048201526024810184905291169063095ea7b3906044016020604051808303816000875af11580156106e1573d6000803e3d6000fd5b505050506040513d601f19601f82011682018060405250810190610705919061190a565b506040805160e08101825284546001600160a01b0390811682526001860154166020820181905262ffffff88169282019290925260009160608201906006602160991b01146107615760028601546001600160a01b0316610763565b305b6001600160a01b03908116825260208083018690526000604080850182905260609485019190915260025481516304e45aaf60e01b815286518516600482015292860151841660248401529085015162ffffff16604483015292840151821660648201526080840151608482015260a084015160a482015260c0840151821660c482015292935016906304e45aaf9060e4016020604051808303816000875af1158015610814573d6000803e3d6000fd5b505050506040513d601f19601f820116820180604052508101906108389190611927565b42600386015560018501549095506001600160a01b03166005602160991b01190161095257604051632e1a7d4d60e01b8152600481018690526006602160991b0190632e1a7d4d90602401600060405180830381600087803b15801561089d57600080fd5b505af11580156108b1573d6000803e3d6000fd5b5050505060028401546040516000916001600160a01b03169087908381818185875af1925050503d8060008114610904576040519150601f19603f3d011682016040523d82523d6000602084013e610909565b606091505b50509050806109505760405162461bcd60e51b8152602060048201526013602482015272115512081d1c985b9cd9995c8819985a5b1959606a1b6044820152606401610173565b505b83546001850154604080516001600160a01b0392831681526020810186905290810188905260608101869052918116918a918c16907f5bb85ced8e36830fbb0c473b21ff268ddd67f189a58d75e3c1053f5b13a2469d9060800160405180910390a4505050506109c160018055565b949350505050565b6109d1611554565b6109d961152a565b6001600160a01b0382166109ff5760405162461bcd60e51b815260040161017390611940565b80471015610a405760405162461bcd60e51b815260206004820152600e60248201526d09cdee840cadcdeeaced0408aa8960931b6044820152606401610173565b6000826001600160a01b03168260405160006040518083038185875af1925050503d8060008114610a8d576040519150601f19603f3d011682016040523d82523d6000602084013e610a92565b606091505b5050905080610ad95760405162461bcd60e51b8152602060048201526013602482015272115512081d1c985b9cd9995c8819985a5b1959606a1b6044820152606401610173565b50610ae360018055565b5050565b610aef611554565b6001600160a01b038216610b3d5760405162461bcd60e51b8152602060048201526015602482015274496e76616c69642061646d696e206164647265737360581b6044820152606401610173565b6001600160a01b038216600081815260046020526040808220805460ff1916851515179055517f54e4612788f90384e6843298d7854436f3a585b2c3831ab66abf1de63bfa6c2d9190a25050565b336000908152600660205260409020548310610bb95760405162461bcd60e51b815260040161017390611856565b336000908152600560205260408120805485908110610bda57610bda61187f565b60009182526020909120600690910201600581015490915060ff16610c325760405162461bcd60e51b815260206004820152600e60248201526d27379030b1ba34bb3290383630b760911b6044820152606401610173565b60008211610c795760405162461bcd60e51b815260206004820152601460248201527304475726174696f6e206d757374206265203e20360641b6044820152606401610173565b6001600160a01b038316610c9f5760405162461bcd60e51b815260040161017390611940565b6002810180546001600160a01b0319166001600160a01b038516908117909155600482018390556040805191825260208201849052859133917f8c648e90e6e1d1e47e6f72405563d8fcb45a9ccae0024e2f27d7c8ff56bea58d910160405180910390a350505050565b604051636eb1769f60e11b81526001600160a01b038281166004830152306024830152600091829185169063dd62ed3e90604401602060405180830381865afa158015610d5a573d6000803e3d6000fd5b505050506040513d601f19601f82011682018060405250810190610d7e9190611927565b9150505b92915050565b610d90611554565b610d9a6000611581565b565b336000908152600660205260409020548110610dca5760405162461bcd60e51b815260040161017390611856565b336000908152600560205260408120805483908110610deb57610deb61187f565b60009182526020909120600690910201600581015490915060ff16610e435760405162461bcd60e51b815260206004820152600e60248201526d27379030b1ba34bb3290383630b760911b6044820152606401610173565b60058101805460ff19169055604051829033907f3ee9ca28321072883626157ba61d1c97dbb201875f5b65ab4d78f77fc316a31c90600090a35050565b60056020528160005260406000208181548110610e9c57600080fd5b60009182526020909120600690910201805460018201546002830154600384015460048501546005909501546001600160a01b03948516975092841695509216929060ff1686565b6001600160a01b0381166000908152600660205260408120546060918167ffffffffffffffff811115610f1957610f1961196b565b604051908082528060200260200182016040528015610f7957816020015b6040805160c08101825260008082526020808301829052928201819052606082018190526080820181905260a08201528252600019909201910181610f375790505b50905060005b82811015611042576001600160a01b0385166000908152600560205260409020805482908110610fb157610fb161187f565b60009182526020918290206040805160c081018252600690930290910180546001600160a01b0390811684526001820154811694840194909452600281015490931690820152600382015460608201526004820154608082015260059091015460ff16151560a0820152825183908390811061102f5761102f61187f565b6020908102919091010152600101610f7f565b509392505050565b611052611554565b600280546001600160a01b0319166001600160a01b0392909216919091179055565b61107c611554565b61108461152a565b600081116110c95760405162461bcd60e51b81526020600482015260126024820152710416d6f756e74206d757374206265203e20360741b6044820152606401610173565b6040516370a0823160e01b81523060048201526000906001600160a01b038516906370a0823190602401602060405180830381865afa158015611110573d6000803e3d6000fd5b505050506040513d601f19601f820116820180604052508101906111349190611927565b90508181101561117f5760405162461bcd60e51b81526020600482015260166024820152752737ba1032b737bab3b4103332b2b9961031b434b2b360511b6044820152606401610173565b60405163a9059cbb60e01b81526001600160a01b0384811660048301526024820184905285169063a9059cbb906044016020604051808303816000875af11580156111ce573d6000803e3d6000fd5b505050506040513d601f19601f820116820180604052508101906111f2919061190a565b50826001600160a01b0316846001600160a01b03167eed5939179dc194223f0edd1517ecee2210b22da7f82c8e4b1795e93b9f06aa8460405161123791815260200190565b60405180910390a35061124960018055565b505050565b611256611554565b6103e88111156112975760405162461bcd60e51b815260206004820152600c60248201526b08ccaca40e8dede40d0d2ced60a31b6044820152606401610173565b600380549082905560408051828152602081018490527f3997ef852da6d6e4a215edf40f1a0cdf31e72168c89f1d27e5f0ac603bf1c8c7910160405180910390a15050565b6112e4611554565b6001600160a01b03811661130e57604051631e4fbdf760e01b815260006004820152602401610173565b61131781611581565b50565b826001600160a01b0316846001600160a01b03160361137b5760405162461bcd60e51b815260206004820152601a60248201527f546f6b656e496e203d3d20546f6b656e4f75743f3f20627275680000000000006044820152606401610173565b600081116113c25760405162461bcd60e51b815260206004820152601460248201527304475726174696f6e206d757374206265203e20360641b6044820152606401610173565b6001600160a01b0382166113e85760405162461bcd60e51b815260040161017390611940565b33600081815260066020818152604080842080546005808552838720845160c0810186526001600160a01b038e811682528d81168289019081528d8216978301978852606083018b8152608084018e8152600160a0860181815287548083018955978f528c8f209651978e0290960180546001600160a01b031990811698871698909817815593519084018054881691861691909117905598516002830180549096169316929092179093555160038301559451600482015593519301805460ff1916931515939093179092559484529190528254909290916114ca83611981565b9091555050604080516001600160a01b038681168252858116602083015291810184905290861690829033907f24d8687d51f420a231048477bebb4e44e31e44f85c435ca8bd2981028dfcd3579060600160405180910390a45050505050565b60026001540361154d57604051633ee5aeb560e01b815260040160405180910390fd5b6002600155565b6000546001600160a01b03163314610d9a5760405163118cdaa760e01b8152336004820152602401610173565b600080546001600160a01b038381166001600160a01b0319831681178455604051919092169283917f8be0079c531659141344cd1fd0a4f28419497f9722a3daafe3b4186f6b6457e09190a35050565b80356001600160a01b03811681146115e857600080fd5b919050565b6000602082840312156115ff57600080fd5b611608826115d1565b9392505050565b6000806000806080858703121561162557600080fd5b61162e856115d1565b93506020850135925060408501359150606085013562ffffff8116811461165457600080fd5b939692955090935050565b6000806040838503121561167257600080fd5b61167b836115d1565b946020939093013593505050565b801515811461131757600080fd5b600080604083850312156116aa57600080fd5b6116b3836115d1565b915060208301356116c381611689565b809150509250929050565b6000806000606084860312156116e357600080fd5b833592506116f3602085016115d1565b929592945050506040919091013590565b6000806040838503121561171757600080fd5b611720836115d1565b915061172e602084016115d1565b90509250929050565b60006020828403121561174957600080fd5b5035919050565b602080825282518282018190526000918401906040840190835b818110156117d457835180516001600160a01b03908116855260208083015182168187015260408084015190921691860191909152606080830151908601526080808301519086015260a0918201511515918501919091529093019260c09092019160010161176a565b509095945050505050565b6000806000606084860312156117f457600080fd5b6117fd846115d1565b92506116f3602085016115d1565b6000806000806080858703121561182157600080fd5b61182a856115d1565b9350611838602086016115d1565b9250611846604086016115d1565b9396929550929360600135925050565b6020808252600f908201526e125b9d985b1a59081c1b185b881251608a1b604082015260600190565b634e487b7160e01b600052603260045260246000fd5b634e487b7160e01b600052601160045260246000fd5b80820180821115610d8257610d82611895565b8082028115828204841417610d8257610d82611895565b6000826118f257634e487b7160e01b600052601260045260246000fd5b500490565b81810381811115610d8257610d82611895565b60006020828403121561191c57600080fd5b815161160881611689565b60006020828403121561193957600080fd5b5051919050565b602080825260119082015270125b9d985b1a59081c9958da5c1a595b9d607a1b604082015260600190565b634e487b7160e01b600052604160045260246000fd5b60006001820161199357611993611895565b506001019056fea2646970667358221220f990844eda423c9f8733b6241a9b0b05a433e5099964a48611efc806a4c5604264736f6c634300081d0033","linkReferences":{}},"methodIdentifiers":{"WETH()":"ad5c4648","admins(address)":"429b62e5","cancelPlan(uint256)":"80d6664c","checkApproval(address,address)":"5cda4b41","createPlan(address,address,address,uint256)":"f34acc05","executeDCAPlan(address,uint256,uint256,uint24)":"322d3410","feePercent()":"7fd6f15c","getAllUserPlans(address)":"ab501c6c","owner()":"8da5cb5b","renounceOwnership()":"715018a6","setAdmin(address,bool)":"4b0bddd2","swapRouter()":"c31c9c07","transferOwnership(address)":"f2fde38b","updateFeePercent(uint256)":"f05c5fed","updatePlan(uint256,address,uint256)":"5235ca75","updateRouter(address)":"c851cc32","userPlanCount(address)":"12f4d314","userPlans(address,uint256)":"831820f0","withdrawETH(address,uint256)":"4782f779","withdrawFees(address,address,uint256)":"e55dc4e6"},"id":23}